:100000001AC134C133C132C131C130C12FC12EC177
:10001000ABC18AC199C12BC129C128C127C15BC20B
:1000200075C2FFFFFAFFF5FFEFFFE9FFE3FFDCFF1B
:10003000D6FFCFFFC9FFC2FFBBFFB4FFACFFA5FFD8
:100040009DFF95FF8DFF85FF7DFF74FF6CFF63FFB4
:100050005AFF50FF47FF3DFF33FF29FF1FFF14FFEB
:1000600009FFFEFEF3FEE8FEDCFED0FEC3FEB7FE97
:10007000AAFE9DFE8FFE81FE73FE65FE56FE47FEC4
:1000800038FE28FE18FE08FEF7FDE6FDD5FDC3FD8F
:10009000B1FD9EFD8BFD78FD64FD4FFD3BFD25FD13
:1000A00010FDF9FCE3FCCCFCB4FC9CFC83FC6AFC7A
:1000B00050FC35FC1AFCFFFBE3FBC6FBA8FB8AFBEC
:1000C0006CFB4CFB2CFB0BFBEAFAC7FAA4FA81FA97
:1000D0005CFA37FA10FAE9F9C1F999F96FF944F9BC
:1000E00019F9ECF8BFF890F861F830F8FFF7CCF7A1
:1000F00098F763F72DF7F6F6BDF683F648F60CF69B
:10010000CEF58FF54FF50DF5C9F485F43EF4F6F311
:10011000ADF362F315F3C7F277F225F2D1F17CF17A
:1001200024F1CBF070F013F0B3EF52EFEEEE88EE67
:1001300020EEB6ED4AEDDBEC69ECF5EB7FEB05EB81
:100140008AEA0BEA8AE906E97FE8F5E768E7D8E694
:1001500044E6AEE514E576E4D6E332E38AE2DEE196
:100160002FE17CE0C4DF09DF4ADE86DDBFDCF3DBA4
:1001700022DB4DDA73D994D8B0D7C8D6DAD5E7D414
:10018000EED3F1D2EDD1E4D0D5CFC0CEA5CD84CC85
:100190005CCB2ECAFAC8BEC77CC632C5E1C389C2D1
:1001A00029C1C2BF52BEDBBC5BBBD3B942B8A8B643
:1001B00005B55AB3A4B1E5AF1CAE4AAC6DAA85A88B
:1001C00093A695A48DA279A0599E2E9CF699B297DC
:1001D0006195029397901E8E978B02895E86AB8302
:1001E000E980187E377B4578437530720C6FD66B8B
:1001F0008E683365C661455EB15A08574B53784FD8
:10020000914B93477E43533F103BB6364232B62D57
:1002100010295024751F7F1A6D153E10F20A8805AB
:1002200000000000326EFF0000326E00FF00326EF0
:100230000000FF22020011241FBECFE5D1E0DEBF87
:10024000CDBF10E0A0E6B0E0EEECFFE002C005900C
:100250000D92A236B107D9F710E0A2E6B0E001C0D6
:100260001D92AE3BB107E1F7C5D0AFC6C9CE1F9214
:100270000F920FB60F9211242F938F939F93EF93AA
:10028000FF9320916A00222331F5C298DF98809174
:100290009700E82FF0E0EE0FFF1FEE5DFF4F859116
:1002A0009491909363008093620090936500809393
:1002B000640080919800E82FF0E0EE0FFF1FEE5DE4
:1002C000FF4F85919491909367008093660090937F
:1002D00069008093680080916500281751F480912F
:1002E0009700882331F08091640086BF89B78260CF
:1002F00089BF80916900281751F480919800882364
:1003000031F0809168008CBF89B7846089BF2F5F0E
:1003100020936A00FF91EF919F918F912F910F9001
:100320000FBE0F901F9018951F920F920FB60F924D
:1003300011248F9389B78D7F89BFC29A8F910F90B7
:100340000FBE0F901F9018951F920F920FB60F922D
:1003500011248F9389B78B7F89BFDF9A8F910F907C
:100360000FBE0F901F9018951F920F920FB60F920D
:1003700011242F933F934F935F936F937F938F93AA
:100380009F93AF93BF93EF93FF9333D580919300E7
:10039000882379F087E990E064E970E03AD588E94C
:1003A00090E065E970E035D589E990E066E970E0B4
:1003B00030D580919900E82FF0E0EE0FFF1FEE5D41
:1003C000FF4F8591949190936C0080936B0099BD41
:1003D00088BDFF91EF91BF91AF919F918F917F91D8
:1003E0006F915F914F913F912F910F900FBE0F90A2
:1003F0001F90189528D507D27DD22DD08FEF9FEF73
:1004000095BD84BD99BD88BD8FEF86BF8CBF91E03F
:100410009BB998BF9CB999BF82E38FBD89E18EBD1E
:1004200093BF789402C03BD05CD44CD0882361F059
:10043000FACFE92FF0E0E770F070E656FF4F8489BD
:100440009F5F9093AC001AD09091AC008091AD006A
:10045000981779F7EACF10927F0010927E001092E1
:100460009100109290008AB380658ABBDC9ADE9A74
:10047000D69888EA8DB980EF8EB90895282F90918B
:1004800090009F5F9F70809191009817E1F3E92F92
:10049000F0E0E058FF4F20839093900008959091F2
:1004A0007E0080917F009817D1F380917F008F5F4D
:1004B0008F7080937F00E0917F00F0E0E259FF4F62
:1004C0008081089590917E0080917F0020E09813B4
:1004D00021E0822F08951F920F920FB60F921124E0
:1004E0008F9310926D00D698CC9B02C0CE9BFCCF10
:1004F000CE9902C088EF01C088EA8DB980EF8EB92D
:100500008F910F900FBE0F901F9018951F920F9212
:100510000FB60F9211248F939F93EF93FF938091C7
:100520006D008230D9F1833030F4882361F081305E
:1005300009F054C018C08430B9F1843088F0853097
:1005400009F04CC037C08FB1882331F08FB1869548
:100550009091AA008917F9F4789B39C081E038C0DE
:100560008FB18823C1F490919000809191009817E9
:1005700091F0809191008F5F8F7080939100E09156
:100580009100F0E0E058FF4F80818FB982E08093C6
:100590006D00D69A0DC088EA8DB90AC083E08093B9
:1005A0006D00D6981FB818C085E080936D00D6986E
:1005B00080E713C080917E008F5F8F7080937E00F4
:1005C000E0917E008FB1F0E0E259FF4F808384E03C
:1005D00080936D001FB8D69A8EE78EB9FF91EF9188
:1005E0009F918F910F900FBE0F901F901895CF92F3
:1005F000DF92EF92FF920F931F93DF93CF9300D080
:100600000F92CDB7DEB77A016901D801472FE82FE5
:10061000362F871730F0731708F4672F4E1750F0F6
:1006200004C0682F381708F4632F232F341730F4D1
:10063000242F04C02E2FE31708F4232F2C932223FA
:1006400019F4D6011C920EC0F22FF61B8F2F90E0EA
:100650006FEF70E03ED4622F70E059D4D6016C93F6
:10066000662319F4F70110822BC0231759F4842F45
:1006700090E08E1B91096BE270E02BD46F2F70E03D
:1006800046D41CC0632F70E0241771F48E2F90E0C5
:10069000861B970B6BE270E01CD46F2F70E037D491
:1006A0006B5AF70160830CC0CB01841B91096BE28C
:1006B00070E00FD46F2F70E02AD46555D7016C938A
:1006C0000F900F900F90CF91DF911F910F91FF909E
:1006D000EF90DF90CF9008959F92AF92BF92CF920C
:1006E000DF92EF92FF920F931F93CF93DF93562FDA
:1006F000F901E8018701662319F4408348835FC04C
:100700006BE2F9D3B82E942E92946FE09622529514
:100710005F70E52EFF2420E130E0C9018E199F09AA
:10072000692D70E0D6D3A82E8B2D90E06BE270E09F
:10073000D0D354E0959587955A95E1F7C82EDD24DE
:10074000C9018C199D09B701C4D360E170E0DFD302
:10075000CB01909581959F4F4096692D70E0B9D35C
:10076000282FBB2019F44083888313C0C601B7012A
:10077000B0D360E170E0CBD3CB01909581959F4FD2
:100780004096692D70E0A5D391E0B91629F48083D5
:100790004883F801A0821AC092E0B91629F4A08219
:1007A0004883F801208312C093E0B91619F4A0829F
:1007B000888305C094E0B91629F42083A882F80143
:1007C000408304C04083A882F8018083DF91CF91E9
:1007D0001F910F91FF90EF90DF90CF90BF90AF905F
:1007E0009F900895E199FECF8EBBE09A8DB3089556
:1007F000E199FECF1CBA8EBB6DBB0FB6F894E29A9E
:10080000E19A0FBE08951092A2008FEF8093A3008B
:100810001092A4001092A5001092A6001092A700BA
:100820001092A8001092A9008DE08093AA00109267
:10083000AB001092AC001092AD008AE28093B6003B
:1008400008958F3661F1813651F1873641F18A354D
:1008500031F1843421F1843721F1863611F182356A
:1008600011F483E008958E36F1F08336E1F083349D
:10087000D1F08836C1F08834B1F08C34A1F08037E3
:1008800091F0813411F485E00895823411F486E00A
:100890000895873511F08FEF089588E0089581E07D
:1008A000089582E0089584E00895682F882311F464
:1008B00080E00895809160008F5F80936000909148
:1008C000AB009F5F980F292F30E043E0220F331FCA
:1008D0004A95E1F7892F880F880B820F92959F70B8
:1008E000890F93E0220F331F9A95E1F7821B03D300
:1008F000892F0895DF93CF9300D000D00F92CDB70A
:10090000DEB7E199FECFE199FECF85E090E08EBBA6
:10091000E09A8DB38093AA00E199FECFCE010196B3
:1009200060E070E045E050E022EF33E09ED2898144
:10093000813281F48A81882369F08093A4008B81BD
:100940008093A7008C81882311F0809392008D8181
:100950008093A9000F900F900F900F900F90CF9160
:10096000DF910895EF92FF920F931F93DF93CF9340
:10097000CDB7DEB72D970FB6F894DEBF0FBECDBF53
:100980007C01FC0180818434B1F42091AD00A6EBA0
:10099000B0E0922FE92FF0E0E770F070E656FF4FDD
:1009A0008D91848B9F5FF0E0AE3BBF0799F7285F86
:1009B0002093AD0089C18E3669F410929300F7013F
:1009C00081818093970082818093980083818093B6
:1009D00099007AC1833671F481E080939300F70126
:1009E000818180939400828180939500838180939C
:1009F00096006AC18334E1F481E080939300109102
:100A00009700F701818151DF180F10939400109126
:100A10009800F701828149DF180F1093950010911B
:100A20009900F701838141DF180F109396004CC1A4
:100A3000883641F481E080939300F70181816281DF
:100A400043812AC0883491F581E0809393006091BE
:100A500097007091980080919900AE014F5F5F4FB1
:100A60009E012E5F3F4F8E010D5F1F4FC0DD19812C
:100A7000F70181811ADF180F19831A81F70182812A
:100A800014DF180F1A831B81F70183810EDF482FB3
:100A9000410F4B8389816A8124E930E005E910E048
:100AA00056E9E52E50E0F52E17DE0EC18735E9F444
:100AB000F70182818A3008F007C1838189878481A8
:100AC0008A8785818B8786818C8787818D87E1994D
:100AD000FECFF701828190E065E070E0FAD1885F97
:100AE0009F4FBE01675F7F4F30C0803771F4F701C1
:100AF00081818F5F8093A40082818093A70083818E
:100B00008093A6001092AB00DFC08F3619F41092CC
:100B1000A400DAC08234F9F481E28C83F701818188
:100B2000882321F082818F5F8D8301C01D82F701B0
:100B300083818E8384818F8385818887E199FECF2D
:100B400080E090E0BE016C5F7F4F45E050E028EF11
:100B500033E0A5D1B9C0863641F4F70181818823FD
:100B600009F4B2C080939200AFC0843729F4F70132
:100B700081818093A900A8C08C3441F4F70182815F
:100B80008093A50083818093A7009EC08134F9F4EF
:100B9000F7018281803D09F097C083818D3009F093
:100BA00093C021818481281709F08EC02093AA0068
:100BB000E199FECFE199FECF1CBA85E090E08EBBB3
:100BC0002DBB0FB6F894E29AE19A0FBE7DC0813634
:100BD00079F48091AD00E82FF0E0E770F070E65610
:100BE000FF4F9091AA00948B8F5F8093AD006CC0F3
:100BF0008736F9F49091AD00E92FF0E0E770F070DE
:100C0000E656FF4F80919700848B9F5FE92FF0E0BD
:100C1000E770F070E656FF4F80919800848B9F5FDD
:100C2000E92FF0E0E770F070E656FF4F80919900F1
:100C300047C0823589F5E199FECFF701828190E0C6
:100C400065E070E046D1BC01685F7F4FCE01099638
:100C500045E050E022EF33E008D19091AD00E92F5C
:100C6000F0E0E770F070E656FF4F8985848B9F5F58
:100C7000DE011A96292FAE01425F5F4FE22FF0E0AE
:100C8000E770F070E656FF4F8D91848B2F5FA417AD
:100C9000B507A1F79C5F16C08A35B1F49091AD00FD
:100CA000E92FF0E0E770F070E656FF4F81E0848BAB
:100CB0009F5FE92FF0E0E770F070E656FF4F83E0AA
:100CC000848B9F5F9093AD002D960FB6F894DEBF96
:100CD0000FBECDBFCF91DF911F910F91FF90EF908D
:100CE00008951F93CF93DF931091A200C12FD0E0FE
:100CF000FE01E656FF4F8083112319F4A2DD809395
:100D0000A3008091A30090E00197C817D90731F4A0
:100D10008AE990E027DE1092A20003C01F5F1093C3
:100D2000A200DF91CF911F910895DF93CF9300D060
:100D300000D00F92CDB7DEB78091A400813099F436
:100D4000E199FECF8091A60090E065E070E0C1D00F
:100D5000BC01685F7F4FCE01019645E050E022EF75
:100D600033E083D01BC090E0880F991F815D9D4FB9
:100D7000FC0125913491F90184918093A500809123
:100D8000A60090E065E070E0A4D00296280F391F1D
:100D9000CE010196B90145E050E05ED08091A600F9
:100DA0008F5F8093A600CE010296DCDD9091A600B5
:100DB0008091A500981789F41092A6009091A70041
:100DC000992359F08091A8008F5F8093A80089171C
:100DD00020F01092A4001092A8008091A90099819F
:100DE000890F0F900F900F900F900F90CF91DF9180
:100DF00008958091A400882359F08091AB008F5F03
:100E00008093AB00815021F490DF81958093AB00FB
:100E10000895DC01FB018C91E0818E1799F090918F
:100E20009200E81748F4282F2E1BE22F921708F49F
:100E3000E92F8E1B8C930895E81B9E1708F4E92F69
:100E40008E0F8C9308951092930081E0809392000E
:100E5000BA9AD79AD59A0895FB01DC0102C0059091
:100E60000D9241505040D8F70895A0E0B0E0EAE379
:100E7000F7E07EC07C01EB018A01690109C0CE0167
:100E80002196F6010995F70181937F0101501040E9
:100E900001151105A1F7CDB7DEB7E8E085C0A0E0E8
:100EA000B0E0E4E5F7E064C0EC017B018A01690190
:100EB00009C0CE012196F70161917F01F6010995E4
:100EC0000150104001151105A1F7CDB7DEB7E8E0DC
:100ED0006BC05527002480FF02C0060E571F660F07
:100EE000771F6115710521F096958795009799F701
:100EF000952F802D0895991B79E004C0991F9617AE
:100F000008F0961B881F7A95C9F78095089597FB7E
:100F1000092E07260AD077FD04D00CD006D0002079
:100F20001AF4709561957F4F0895F6F79095819525
:100F30009F4F0895AA1BBB1B51E107C0AA1FBB1FEF
:100F4000A617B70710F0A61BB70B881F991F5A9555
:100F5000A9F780959095BC01CD0108952F923F92FD
:100F60004F925F926F927F928F929F92AF92BF92B9
:100F7000CF92DF92EF92FF920F931F93CF93DF9365
:100F8000CDB7DEB7CA1BDB0B0FB6F894DEBF0FBEC2
:100F9000CDBF09942A88398848885F846E847D840F
:100FA0008C849B84AA84B984C884DF80EE80FD8011
:100FB0000C811B81AA81B981CE0FD11D0FB6F89487
:0E0FC000DEBF0FBECDBFED010895F894FFCF48
:020FCE00010020
:00000001FF
